{
  "contractName": "Sukien",
  "abi": [
    {
      "anonymous": false,
      "inputs": [
        {
          "indexed": false,
          "internalType": "uint256",
          "name": "_mssv",
          "type": "uint256"
        },
        {
          "indexed": false,
          "internalType": "string",
          "name": "_ho",
          "type": "string"
        },
        {
          "indexed": false,
          "internalType": "string",
          "name": "_ten",
          "type": "string"
        }
      ],
      "name": "taoVe",
      "type": "event"
    },
    {
      "constant": true,
      "inputs": [
        {
          "internalType": "uint256",
          "name": "",
          "type": "uint256"
        }
      ],
      "name": "Ves",
      "outputs": [
        {
          "internalType": "uint256",
          "name": "id",
          "type": "uint256"
        },
        {
          "internalType": "uint256",
          "name": "mssv",
          "type": "uint256"
        },
        {
          "internalType": "string",
          "name": "ho",
          "type": "string"
        },
        {
          "internalType": "string",
          "name": "ten",
          "type": "string"
        },
        {
          "internalType": "string",
          "name": "masukien",
          "type": "string"
        },
        {
          "internalType": "string",
          "name": "mave",
          "type": "string"
        }
      ],
      "payable": false,
      "stateMutability": "view",
      "type": "function"
    },
    {
      "constant": true,
      "inputs": [],
      "name": "nextId",
      "outputs": [
        {
          "internalType": "uint256",
          "name": "",
          "type": "uint256"
        }
      ],
      "payable": false,
      "stateMutability": "view",
      "type": "function"
    },
    {
      "constant": false,
      "inputs": [
        {
          "internalType": "uint256",
          "name": "_mssv",
          "type": "uint256"
        },
        {
          "internalType": "string",
          "name": "_ho",
          "type": "string"
        },
        {
          "internalType": "string",
          "name": "_ten",
          "type": "string"
        },
        {
          "internalType": "string",
          "name": "_masukien",
          "type": "string"
        }
      ],
      "name": "createVe",
      "outputs": [],
      "payable": false,
      "stateMutability": "nonpayable",
      "type": "function"
    },
    {
      "constant": true,
      "inputs": [
        {
          "internalType": "uint256",
          "name": "_mssv",
          "type": "uint256"
        }
      ],
      "name": "search",
      "outputs": [
        {
          "internalType": "uint256",
          "name": "",
          "type": "uint256"
        },
        {
          "internalType": "string",
          "name": "",
          "type": "string"
        },
        {
          "internalType": "string",
          "name": "",
          "type": "string"
        },
        {
          "internalType": "string",
          "name": "",
          "type": "string"
        },
        {
          "internalType": "string",
          "name": "",
          "type": "string"
        }
      ],
      "payable": false,
      "stateMutability": "view",
      "type": "function"
    }
  ],
  "bytecode": "0x608060405234801561001057600080fd5b50611101806100206000396000f3fe608060405234801561001057600080fd5b506004361061004c5760003560e01c806361b8ce8c14610051578063ab7b7e321461006b578063e540b8ff14610228578063fc156fe0146103fd575b600080fd5b6100596105cb565b60408051918252519081900360200190f35b6102266004803603608081101561008157600080fd5b813591908101906040810160208201356401000000008111156100a357600080fd5b8201836020820111156100b557600080fd5b803590602001918460018302840111640100000000831117156100d757600080fd5b91908080601f016020809104026020016040519081016040528093929190818152602001838380828437600092019190915250929594936020810193503591505064010000000081111561012a57600080fd5b82018360208201111561013c57600080fd5b8035906020019184600183028401116401000000008311171561015e57600080fd5b91908080601f01602080910402602001604051908101604052809392919081815260200183838082843760009201919091525092959493602081019350359150506401000000008111156101b157600080fd5b8201836020820111156101c357600080fd5b803590602001918460018302840111640100000000831117156101e557600080fd5b91908080601f0160208091040260200160405190810160405280939291908181526020018383808284376000920191909152509295506105d1945050505050565b005b6102456004803603602081101561023e57600080fd5b50356107d4565b6040518087815260200186815260200180602001806020018060200180602001858103855289818151815260200191508051906020019080838360005b8381101561029a578181015183820152602001610282565b50505050905090810190601f1680156102c75780820380516001836020036101000a031916815260200191505b5085810384528851815288516020918201918a019080838360005b838110156102fa5781810151838201526020016102e2565b50505050905090810190601f1680156103275780820380516001836020036101000a031916815260200191505b50858103835287518152875160209182019189019080838360005b8381101561035a578181015183820152602001610342565b50505050905090810190601f1680156103875780820380516001836020036101000a031916815260200191505b50858103825286518152865160209182019188019080838360005b838110156103ba5781810151838201526020016103a2565b50505050905090810190601f1680156103e75780820380516001836020036101000a031916815260200191505b509a505050505050505050505060405180910390f35b61041a6004803603602081101561041357600080fd5b5035610a46565b6040518086815260200180602001806020018060200180602001858103855289818151815260200191508051906020019080838360005b83811015610469578181015183820152602001610451565b50505050905090810190601f1680156104965780820380516001836020036101000a031916815260200191505b5085810384528851815288516020918201918a019080838360005b838110156104c95781810151838201526020016104b1565b50505050905090810190601f1680156104f65780820380516001836020036101000a031916815260200191505b50858103835287518152875160209182019189019080838360005b83811015610529578181015183820152602001610511565b50505050905090810190601f1680156105565780820380516001836020036101000a031916815260200191505b50858103825286518152865160209182019188019080838360005b83811015610589578181015183820152602001610571565b50505050905090810190601f1680156105b65780820380516001836020036101000a031916815260200191505b50995050505050505050505060405180910390f35b60005481565b83816105dd8282610d67565b6105e657600080fd5b60008054600101908190556040805160c081018252918252602082018890528101869052606081018590526080810184905260a0810161062e856106298a610eb3565b610f76565b905260008054815260016020818152604092839020845181558482015192810192909255918301518051919261066c92600285019290910190611031565b5060608201518051610688916003840191602090910190611031565b50608082015180516106a4916004840191602090910190611031565b5060a082015180516106c0916005840191602090910190611031565b509050507f2cc6632e8361515cc70ef9fc04f67730e59a49c77abca9ec0641f5819cd437b6868686604051808481526020018060200180602001838103835285818151815260200191508051906020019080838360005b8381101561072f578181015183820152602001610717565b50505050905090810190601f16801561075c5780820380516001836020036101000a031916815260200191505b50838103825284518152845160209182019186019080838360005b8381101561078f578181015183820152602001610777565b50505050905090810190601f1680156107bc5780820380516001836020036101000a031916815260200191505b509550505050505060405180910390a1505050505050565b6001602052806000526040600020600091509050806000015490806001015490806002018054600181600116156101000203166002900480601f01602080910402602001604051908101604052809291908181526020018280546001816001161561010002031660029004801561088c5780601f106108615761010080835404028352916020019161088c565b820191906000526020600020905b81548152906001019060200180831161086f57829003601f168201915b5050505060038301805460408051602060026001851615610100026000190190941693909304601f810184900484028201840190925281815294959493509083018282801561091c5780601f106108f15761010080835404028352916020019161091c565b820191906000526020600020905b8154815290600101906020018083116108ff57829003601f168201915b5050505060048301805460408051602060026001851615610100026000190190941693909304601f81018490048402820184019092528181529495949350908301828280156109ac5780601f10610981576101008083540402835291602001916109ac565b820191906000526020600020905b81548152906001019060200180831161098f57829003601f168201915b5050505060058301805460408051602060026001851615610100026000190190941693909304601f8101849004840282018401909252818152949594935090830182828015610a3c5780601f10610a1157610100808354040283529160200191610a3c565b820191906000526020600020905b815481529060010190602001808311610a1f57829003601f168201915b5050505050905086565b6000606080808060015b6000548111610d5c5760008181526001602081905260409091200154871415610d54576060600160008381526020019081526020016000206002018054600181600116156101000203166002900480601f016020809104026020016040519081016040528092919081815260200182805460018160011615610100020316600290048015610b1f5780601f10610af457610100808354040283529160200191610b1f565b820191906000526020600020905b815481529060010190602001808311610b0257829003601f168201915b505050505090506060600160008481526020019081526020016000206003018054600181600116156101000203166002900480601f016020809104026020016040519081016040528092919081815260200182805460018160011615610100020316600290048015610bd25780601f10610ba757610100808354040283529160200191610bd2565b820191906000526020600020905b815481529060010190602001808311610bb557829003601f168201915b505050505090506060600160008581526020019081526020016000206004018054600181600116156101000203166002900480601f016020809104026020016040519081016040528092919081815260200182805460018160011615610100020316600290048015610c855780601f10610c5a57610100808354040283529160200191610c85565b820191906000526020600020905b815481529060010190602001808311610c6857829003601f168201915b505050505090506060600160008681526020019081526020016000206005018054600181600116156101000203166002900480601f016020809104026020016040519081016040528092919081815260200182805460018160011615610100020316600290048015610d385780601f10610d0d57610100808354040283529160200191610d38565b820191906000526020600020905b815481529060010190602001808311610d1b57829003601f168201915b508f9e50979c50959a50939850909650610d5e95505050505050565b600101610a50565b505b91939590929450565b600060015b6000548111610ea7576000818152600160208190526040909120015484148015610e905750600160008281526020019081526020016000206004016040516020018082805460018160011615610100020316600290048015610e055780601f10610de3576101008083540402835291820191610e05565b820191906000526020600020905b815481529060010190602001808311610df1575b505091505060405160208183030381529060405280519060200120836040516020018082805190602001908083835b60208310610e535780518252601f199092019160209182019101610e34565b6001836020036101000a03801982511681845116808217855250505050505090500191505060405160208183030381529060405280519060200120145b15610e9f576000915050610ead565b600101610d6c565b50600190505b92915050565b606081610ed857506040805180820190915260018152600360fc1b6020820152610f71565b8160005b8115610ef057600101600a82049150610edc565b6060816040519080825280601f01601f191660200182016040528015610f1d576020820181803883390190505b50905060001982015b8515610f6b57600a860660300160f81b82828060019003935081518110610f4957fe5b60200101906001600160f81b031916908160001a905350600a86049550610f26565b50925050505b919050565b606082826040516020018083805190602001908083835b60208310610fac5780518252601f199092019160209182019101610f8d565b51815160209384036101000a600019018019909216911617905285519190930192850191508083835b60208310610ff45780518252601f199092019160209182019101610fd5565b6001836020036101000a03801982511681845116808217855250505050505090500192505050604051602081830303815290604052905092915050565b828054600181600116156101000203166002900490600052602060002090601f016020900481019282601f1061107257805160ff191683800117855561109f565b8280016001018555821561109f579182015b8281111561109f578251825591602001919060010190611084565b506110ab9291506110af565b5090565b6110c991905b808211156110ab57600081556001016110b5565b9056fea265627a7a72315820c478f40364b33d91187ae853018242d8dc1c58332845df316b908fe2dc66dcac64736f6c63430005100032",
  "source": "pragma solidity >=0.5.0 <0.6.0;\r\n\r\n////////----------------////\r\ncontract Sukien  {\r\n    //cấu trúc vé\r\n    struct Ve{\r\n        uint id;\r\n        uint mssv;\r\n        string ho;\r\n        string ten;\r\n        string masukien;\r\n        string mave;\r\n    }\r\n    //mang ve với cấu trúc\r\n    uint public nextId;\r\n    \r\n    //trạng thái\r\n   mapping(uint => Ve) public Ves ;\r\n   ///Su kien\r\n   event taoVe(uint _mssv, string _ho, string _ten);\r\n   ///\r\n   /////\r\n     modifier checkma(uint _mssv,string memory _masukien) {\r\n      require(checkMssv(_mssv,_masukien)!=false);\r\n         _;\r\n   }\r\n   modifier checkUser(){\r\n       address tk = 0x5d1224F28d6FeB5E0f7B6D29e90A3D9beabDcF20;\r\n       address tk2 = msg.sender;\r\n       require(tk != tk2);\r\n           _;\r\n   }\r\n   function checkMssv(uint _mssv, string memory _masukien) view private returns(bool) {\r\n         for( uint i=1; i<= nextId; i++){\r\n             if(_mssv == Ves[i].mssv && keccak256(abi.encodePacked(_masukien)) == keccak256(abi.encodePacked(Ves[i].masukien)) ){\r\n                return false;\r\n             }\r\n         }\r\n         return true;\r\n     }\r\n    function concat(bytes memory a, bytes memory b)\r\n            internal pure returns (bytes memory) {\r\n        return abi.encodePacked(a, b);\r\n    }\r\n    function uint2str(uint _i) internal pure returns (string memory _uintAsString) {\r\n        if (_i == 0) {\r\n            return \"0\";\r\n        }\r\n        uint j = _i;\r\n        uint len;\r\n        while (j != 0) {\r\n            len++;\r\n            j /= 10;\r\n        }\r\n        bytes memory bstr = new bytes(len);\r\n        uint k = len - 1;\r\n        while (_i != 0) {\r\n            bstr[k--] = byte(uint8(48 + _i % 10));\r\n            _i /= 10;\r\n        }\r\n        return string(bstr);\r\n    }\r\n    //  string memory _mave\r\n    //   checkMave(_mssv, _mave)\r\n    /////------------///\r\n    function createVe (uint _mssv, string memory _ho, string memory _ten, string memory _masukien) public  checkma(_mssv,_masukien)  {\r\n        //check\r\n        //Tạo cấu trúc vé\r\n        nextId++;\r\n        Ves[nextId] = Ve(nextId, _mssv, _ho, _ten, _masukien,string(concat(bytes(_masukien), bytes(uint2str(_mssv)))));\r\n        emit taoVe(_mssv,_ho,_ten);\r\n    }\r\n    function search(uint _mssv) public view returns (uint, string memory, string memory, string memory,string memory){\r\n        for(uint i =1; i<= nextId;i++){\r\n            if(_mssv == Ves[i].mssv){\r\n                string memory ho = Ves[i].ho;\r\n                string memory ten = Ves[i].ten;\r\n                string memory masukien = Ves[i].masukien;\r\n                string memory mave = Ves[i].mave;\r\n                // string memory masukien = Ves[i].masukien;\r\n                return (_mssv,ho,ten,masukien,mave);\r\n            }\r\n        }\r\n    }\r\n}",
  "sourcePath": "D:/IUH/CNM/hd_wallet/contracts/Sukien.sol",
  "compiler": {
    "name": "solc",
    "version": "0.5.16+commit.9c3226ce.Emscripten.clang"
  },
  "schemaVersion": "3.3.3",
  "updatedAt": "2021-01-05T13:25:54.921Z",
  "devdoc": {
    "methods": {}
  },
  "userdoc": {
    "methods": {
      "createVe(uint256,string,string,string)": {
        "notice": "//------------///"
      }
    },
    "notice": "/////----------------////"
  }
}